{
	"data": {
		"bytecode": {
			"linkReferences": {},
			"object": "608060405234801561001057600080fd5b506105e2806100206000396000f3fe608060405234801561001057600080fd5b50600436106100415760003560e01c8063210ab8c7146100465780634618b42c146100765780639d033fde14610092575b600080fd5b610060600480360381019061005b919061032a565b6100ae565b60405161006d91906103a6565b60405180910390f35b610090600480360381019061008b9190610357565b6100ca565b005b6100ac60048036038101906100a791906102b2565b6100e5565b005b6000806000838152602001908152602001600020549050919050565b80600080848152602001908152602001600020819055505050565b600080835190505b808210156101465761013384838151811061010b5761010a6104fb565b5b6020026020010151848481518110610126576101256104fb565b5b60200260200101516100ca565b818061013e90610483565b9250506100ed565b50505050565b600061015f61015a846103e6565b6103c1565b905080838252602082019050828560208602820111156101825761018161055e565b5b60005b858110156101b257816101988882610288565b845260208401935060208301925050600181019050610185565b5050509392505050565b60006101cf6101ca84610412565b6103c1565b905080838252602082019050828560208602820111156101f2576101f161055e565b5b60005b858110156102225781610208888261029d565b8452602084019350602083019250506001810190506101f5565b5050509392505050565b600082601f83011261024157610240610559565b5b813561025184826020860161014c565b91505092915050565b600082601f83011261026f5761026e610559565b5b813561027f8482602086016101bc565b91505092915050565b6000813590506102978161057e565b92915050565b6000813590506102ac81610595565b92915050565b600080604083850312156102c9576102c8610568565b5b600083013567ffffffffffffffff8111156102e7576102e6610563565b5b6102f38582860161025a565b925050602083013567ffffffffffffffff81111561031457610313610563565b5b6103208582860161022c565b9150509250929050565b6000602082840312156103405761033f610568565b5b600061034e8482850161029d565b91505092915050565b6000806040838503121561036e5761036d610568565b5b600061037c8582860161029d565b925050602061038d85828601610288565b9150509250929050565b6103a08161043e565b82525050565b60006020820190506103bb6000830184610397565b92915050565b60006103cb6103dc565b90506103d78282610452565b919050565b6000604051905090565b600067ffffffffffffffff8211156104015761040061052a565b5b602082029050602081019050919050565b600067ffffffffffffffff82111561042d5761042c61052a565b5b602082029050602081019050919050565b6000819050919050565b6000819050919050565b61045b8261056d565b810181811067ffffffffffffffff8211171561047a5761047961052a565b5b80604052505050565b600061048e82610448565b91507fffffffffffffffffffffffffffffffffffffffffffffffffffffffffffffffff8214156104c1576104c06104cc565b5b600182019050919050565b7f4e487b7100000000000000000000000000000000000000000000000000000000600052601160045260246000fd5b7f4e487b7100000000000000000000000000000000000000000000000000000000600052603260045260246000fd5b7f4e487b7100000000000000000000000000000000000000000000000000000000600052604160045260246000fd5b600080fd5b600080fd5b600080fd5b600080fd5b6000601f19601f8301169050919050565b6105878161043e565b811461059257600080fd5b50565b61059e81610448565b81146105a957600080fd5b5056fea2646970667358221220b25597791096d156d8acace8c6ae992ffe51aae12d9a1ce84d2ec627224316b464736f6c63430008070033",
			"opcodes": "PUSH1 0x80 PUSH1 0x40 MSTORE CALLVALUE DUP1 ISZERO PUSH2 0x10 JUMPI PUSH1 0x0 DUP1 REVERT JUMPDEST POP PUSH2 0x5E2 DUP1 PUSH2 0x20 PUSH1 0x0 CODECOPY PUSH1 0x0 RETURN INVALID PUSH1 0x80 PUSH1 0x40 MSTORE CALLVALUE DUP1 ISZERO PUSH2 0x10 JUMPI PUSH1 0x0 DUP1 REVERT JUMPDEST POP PUSH1 0x4 CALLDATASIZE LT PUSH2 0x41 JUMPI PUSH1 0x0 CALLDATALOAD PUSH1 0xE0 SHR DUP1 PUSH4 0x210AB8C7 EQ PUSH2 0x46 JUMPI DUP1 PUSH4 0x4618B42C EQ PUSH2 0x76 JUMPI DUP1 PUSH4 0x9D033FDE EQ PUSH2 0x92 JUMPI JUMPDEST PUSH1 0x0 DUP1 REVERT JUMPDEST PUSH2 0x60 PUSH1 0x4 DUP1 CALLDATASIZE SUB DUP2 ADD SWAP1 PUSH2 0x5B SWAP2 SWAP1 PUSH2 0x32A JUMP JUMPDEST PUSH2 0xAE JUMP JUMPDEST PUSH1 0x40 MLOAD PUSH2 0x6D SWAP2 SWAP1 PUSH2 0x3A6 JUMP JUMPDEST PUSH1 0x40 MLOAD DUP1 SWAP2 SUB SWAP1 RETURN JUMPDEST PUSH2 0x90 PUSH1 0x4 DUP1 CALLDATASIZE SUB DUP2 ADD SWAP1 PUSH2 0x8B SWAP2 SWAP1 PUSH2 0x357 JUMP JUMPDEST PUSH2 0xCA JUMP JUMPDEST STOP JUMPDEST PUSH2 0xAC PUSH1 0x4 DUP1 CALLDATASIZE SUB DUP2 ADD SWAP1 PUSH2 0xA7 SWAP2 SWAP1 PUSH2 0x2B2 JUMP JUMPDEST PUSH2 0xE5 JUMP JUMPDEST STOP JUMPDEST PUSH1 0x0 DUP1 PUSH1 0x0 DUP4 DUP2 MSTORE PUSH1 0x20 ADD SWAP1 DUP2 MSTORE PUSH1 0x20 ADD PUSH1 0x0 KECCAK256 SLOAD SWAP1 POP SWAP2 SWAP1 POP JUMP JUMPDEST DUP1 PUSH1 0x0 DUP1 DUP5 DUP2 MSTORE PUSH1 0x20 ADD SWAP1 DUP2 MSTORE PUSH1 0x20 ADD PUSH1 0x0 KECCAK256 DUP2 SWAP1 SSTORE POP POP POP JUMP JUMPDEST PUSH1 0x0 DUP1 DUP4 MLOAD SWAP1 POP JUMPDEST DUP1 DUP3 LT ISZERO PUSH2 0x146 JUMPI PUSH2 0x133 DUP5 DUP4 DUP2 MLOAD DUP2 LT PUSH2 0x10B JUMPI PUSH2 0x10A PUSH2 0x4FB JUMP JUMPDEST JUMPDEST PUSH1 0x20 MUL PUSH1 0x20 ADD ADD MLOAD DUP5 DUP5 DUP2 MLOAD DUP2 LT PUSH2 0x126 JUMPI PUSH2 0x125 PUSH2 0x4FB JUMP JUMPDEST JUMPDEST PUSH1 0x20 MUL PUSH1 0x20 ADD ADD MLOAD PUSH2 0xCA JUMP JUMPDEST DUP2 DUP1 PUSH2 0x13E SWAP1 PUSH2 0x483 JUMP JUMPDEST SWAP3 POP POP PUSH2 0xED JUMP JUMPDEST POP POP POP POP JUMP JUMPDEST PUSH1 0x0 PUSH2 0x15F PUSH2 0x15A DUP5 PUSH2 0x3E6 JUMP JUMPDEST PUSH2 0x3C1 JUMP JUMPDEST SWAP1 POP DUP1 DUP4 DUP3 MSTORE PUSH1 0x20 DUP3 ADD SWAP1 POP DUP3 DUP6 PUSH1 0x20 DUP7 MUL DUP3 ADD GT ISZERO PUSH2 0x182 JUMPI PUSH2 0x181 PUSH2 0x55E JUMP JUMPDEST JUMPDEST PUSH1 0x0 JUMPDEST DUP6 DUP2 LT ISZERO PUSH2 0x1B2 JUMPI DUP2 PUSH2 0x198 DUP9 DUP3 PUSH2 0x288 JUMP JUMPDEST DUP5 MSTORE PUSH1 0x20 DUP5 ADD SWAP4 POP PUSH1 0x20 DUP4 ADD SWAP3 POP POP PUSH1 0x1 DUP2 ADD SWAP1 POP PUSH2 0x185 JUMP JUMPDEST POP POP POP SWAP4 SWAP3 POP POP POP JUMP JUMPDEST PUSH1 0x0 PUSH2 0x1CF PUSH2 0x1CA DUP5 PUSH2 0x412 JUMP JUMPDEST PUSH2 0x3C1 JUMP JUMPDEST SWAP1 POP DUP1 DUP4 DUP3 MSTORE PUSH1 0x20 DUP3 ADD SWAP1 POP DUP3 DUP6 PUSH1 0x20 DUP7 MUL DUP3 ADD GT ISZERO PUSH2 0x1F2 JUMPI PUSH2 0x1F1 PUSH2 0x55E JUMP JUMPDEST JUMPDEST PUSH1 0x0 JUMPDEST DUP6 DUP2 LT ISZERO PUSH2 0x222 JUMPI DUP2 PUSH2 0x208 DUP9 DUP3 PUSH2 0x29D JUMP JUMPDEST DUP5 MSTORE PUSH1 0x20 DUP5 ADD SWAP4 POP PUSH1 0x20 DUP4 ADD SWAP3 POP POP PUSH1 0x1 DUP2 ADD SWAP1 POP PUSH2 0x1F5 JUMP JUMPDEST POP POP POP SWAP4 SWAP3 POP POP POP JUMP JUMPDEST PUSH1 0x0 DUP3 PUSH1 0x1F DUP4 ADD SLT PUSH2 0x241 JUMPI PUSH2 0x240 PUSH2 0x559 JUMP JUMPDEST JUMPDEST DUP2 CALLDATALOAD PUSH2 0x251 DUP5 DUP3 PUSH1 0x20 DUP7 ADD PUSH2 0x14C JUMP JUMPDEST SWAP2 POP POP SWAP3 SWAP2 POP POP JUMP JUMPDEST PUSH1 0x0 DUP3 PUSH1 0x1F DUP4 ADD SLT PUSH2 0x26F JUMPI PUSH2 0x26E PUSH2 0x559 JUMP JUMPDEST JUMPDEST DUP2 CALLDATALOAD PUSH2 0x27F DUP5 DUP3 PUSH1 0x20 DUP7 ADD PUSH2 0x1BC JUMP JUMPDEST SWAP2 POP POP SWAP3 SWAP2 POP POP JUMP JUMPDEST PUSH1 0x0 DUP2 CALLDATALOAD SWAP1 POP PUSH2 0x297 DUP2 PUSH2 0x57E JUMP JUMPDEST SWAP3 SWAP2 POP POP JUMP JUMPDEST PUSH1 0x0 DUP2 CALLDATALOAD SWAP1 POP PUSH2 0x2AC DUP2 PUSH2 0x595 JUMP JUMPDEST SWAP3 SWAP2 POP POP JUMP JUMPDEST PUSH1 0x0 DUP1 PUSH1 0x40 DUP4 DUP6 SUB SLT ISZERO PUSH2 0x2C9 JUMPI PUSH2 0x2C8 PUSH2 0x568 JUMP JUMPDEST JUMPDEST PUSH1 0x0 DUP4 ADD CALLDATALOAD PUSH8 0xFFFFFFFFFFFFFFFF DUP2 GT ISZERO PUSH2 0x2E7 JUMPI PUSH2 0x2E6 PUSH2 0x563 JUMP JUMPDEST JUMPDEST PUSH2 0x2F3 DUP6 DUP3 DUP7 ADD PUSH2 0x25A JUMP JUMPDEST SWAP3 POP POP PUSH1 0x20 DUP4 ADD CALLDATALOAD PUSH8 0xFFFFFFFFFFFFFFFF DUP2 GT ISZERO PUSH2 0x314 JUMPI PUSH2 0x313 PUSH2 0x563 JUMP JUMPDEST JUMPDEST PUSH2 0x320 DUP6 DUP3 DUP7 ADD PUSH2 0x22C JUMP JUMPDEST SWAP2 POP POP SWAP3 POP SWAP3 SWAP1 POP JUMP JUMPDEST PUSH1 0x0 PUSH1 0x20 DUP3 DUP5 SUB SLT ISZERO PUSH2 0x340 JUMPI PUSH2 0x33F PUSH2 0x568 JUMP JUMPDEST JUMPDEST PUSH1 0x0 PUSH2 0x34E DUP5 DUP3 DUP6 ADD PUSH2 0x29D JUMP JUMPDEST SWAP2 POP POP SWAP3 SWAP2 POP POP JUMP JUMPDEST PUSH1 0x0 DUP1 PUSH1 0x40 DUP4 DUP6 SUB SLT ISZERO PUSH2 0x36E JUMPI PUSH2 0x36D PUSH2 0x568 JUMP JUMPDEST JUMPDEST PUSH1 0x0 PUSH2 0x37C DUP6 DUP3 DUP7 ADD PUSH2 0x29D JUMP JUMPDEST SWAP3 POP POP PUSH1 0x20 PUSH2 0x38D DUP6 DUP3 DUP7 ADD PUSH2 0x288 JUMP JUMPDEST SWAP2 POP POP SWAP3 POP SWAP3 SWAP1 POP JUMP JUMPDEST PUSH2 0x3A0 DUP2 PUSH2 0x43E JUMP JUMPDEST DUP3 MSTORE POP POP JUMP JUMPDEST PUSH1 0x0 PUSH1 0x20 DUP3 ADD SWAP1 POP PUSH2 0x3BB PUSH1 0x0 DUP4 ADD DUP5 PUSH2 0x397 JUMP JUMPDEST SWAP3 SWAP2 POP POP JUMP JUMPDEST PUSH1 0x0 PUSH2 0x3CB PUSH2 0x3DC JUMP JUMPDEST SWAP1 POP PUSH2 0x3D7 DUP3 DUP3 PUSH2 0x452 JUMP JUMPDEST SWAP2 SWAP1 POP JUMP JUMPDEST PUSH1 0x0 PUSH1 0x40 MLOAD SWAP1 POP SWAP1 JUMP JUMPDEST PUSH1 0x0 PUSH8 0xFFFFFFFFFFFFFFFF DUP3 GT ISZERO PUSH2 0x401 JUMPI PUSH2 0x400 PUSH2 0x52A JUMP JUMPDEST JUMPDEST PUSH1 0x20 DUP3 MUL SWAP1 POP PUSH1 0x20 DUP2 ADD SWAP1 POP SWAP2 SWAP1 POP JUMP JUMPDEST PUSH1 0x0 PUSH8 0xFFFFFFFFFFFFFFFF DUP3 GT ISZERO PUSH2 0x42D JUMPI PUSH2 0x42C PUSH2 0x52A JUMP JUMPDEST JUMPDEST PUSH1 0x20 DUP3 MUL SWAP1 POP PUSH1 0x20 DUP2 ADD SWAP1 POP SWAP2 SWAP1 POP JUMP JUMPDEST PUSH1 0x0 DUP2 SWAP1 POP SWAP2 SWAP1 POP JUMP JUMPDEST PUSH1 0x0 DUP2 SWAP1 POP SWAP2 SWAP1 POP JUMP JUMPDEST PUSH2 0x45B DUP3 PUSH2 0x56D JUMP JUMPDEST DUP2 ADD DUP2 DUP2 LT PUSH8 0xFFFFFFFFFFFFFFFF DUP3 GT OR ISZERO PUSH2 0x47A JUMPI PUSH2 0x479 PUSH2 0x52A JUMP JUMPDEST JUMPDEST DUP1 PUSH1 0x40 MSTORE POP POP POP JUMP JUMPDEST PUSH1 0x0 PUSH2 0x48E DUP3 PUSH2 0x448 JUMP JUMPDEST SWAP2 POP PUSH32 0xFFFFFFFFFFFFFFFFFFFFFFFFFFFFFFFFFFFFFFFFFFFFFFFFFFFFFFFFFFFFFFFF DUP3 EQ ISZERO PUSH2 0x4C1 JUMPI PUSH2 0x4C0 PUSH2 0x4CC JUMP JUMPDEST JUMPDEST PUSH1 0x1 DUP3 ADD SWAP1 POP SWAP2 SWAP1 POP JUMP JUMPDEST PUSH32 0x4E487B7100000000000000000000000000000000000000000000000000000000 PUSH1 0x0 MSTORE PUSH1 0x11 PUSH1 0x4 MSTORE PUSH1 0x24 PUSH1 0x0 REVERT JUMPDEST PUSH32 0x4E487B7100000000000000000000000000000000000000000000000000000000 PUSH1 0x0 MSTORE PUSH1 0x32 PUSH1 0x4 MSTORE PUSH1 0x24 PUSH1 0x0 REVERT JUMPDEST PUSH32 0x4E487B7100000000000000000000000000000000000000000000000000000000 PUSH1 0x0 MSTORE PUSH1 0x41 PUSH1 0x4 MSTORE PUSH1 0x24 PUSH1 0x0 REVERT JUMPDEST PUSH1 0x0 DUP1 REVERT JUMPDEST PUSH1 0x0 DUP1 REVERT JUMPDEST PUSH1 0x0 DUP1 REVERT JUMPDEST PUSH1 0x0 DUP1 REVERT JUMPDEST PUSH1 0x0 PUSH1 0x1F NOT PUSH1 0x1F DUP4 ADD AND SWAP1 POP SWAP2 SWAP1 POP JUMP JUMPDEST PUSH2 0x587 DUP2 PUSH2 0x43E JUMP JUMPDEST DUP2 EQ PUSH2 0x592 JUMPI PUSH1 0x0 DUP1 REVERT JUMPDEST POP JUMP JUMPDEST PUSH2 0x59E DUP2 PUSH2 0x448 JUMP JUMPDEST DUP2 EQ PUSH2 0x5A9 JUMPI PUSH1 0x0 DUP1 REVERT JUMPDEST POP JUMP INVALID LOG2 PUSH5 0x6970667358 0x22 SLT KECCAK256 0xB2 SSTORE SWAP8 PUSH26 0x1096D156D8ACACE8C6AE992FFE51AAE12D9A1CE84D2EC6272243 AND 0xB4 PUSH5 0x736F6C6343 STOP ADDMOD SMOD STOP CALLER "
		},
		"gasEstimates": {
			"creation": {
				"codeDepositCost": "301200",
				"executionCost": "343",
				"totalCost": "301543"
			},
			"external": {
				"retrieveHash(uint256)": "2758",
				"storeHash(uint256,bytes32)": "22771",
				"storeHashMulti(uint256[],bytes32[])": "infinite"
			}
		},
		"methodIdentifiers": {
			"retrieveHash(uint256)": "210ab8c7",
			"storeHash(uint256,bytes32)": "4618b42c",
			"storeHashMulti(uint256[],bytes32[])": "9d033fde"
		}
	},
	"abi": [
		{
			"inputs": [
				{
					"internalType": "uint256",
					"name": "id",
					"type": "uint256"
				}
			],
			"name": "retrieveHash",
			"outputs": [
				{
					"internalType": "bytes32",
					"name": "",
					"type": "bytes32"
				}
			],
			"stateMutability": "view",
			"type": "function"
		},
		{
			"inputs": [
				{
					"internalType": "uint256",
					"name": "id",
					"type": "uint256"
				},
				{
					"internalType": "bytes32",
					"name": "hash",
					"type": "bytes32"
				}
			],
			"name": "storeHash",
			"outputs": [],
			"stateMutability": "nonpayable",
			"type": "function"
		},
		{
			"inputs": [
				{
					"internalType": "uint256[]",
					"name": "idList",
					"type": "uint256[]"
				},
				{
					"internalType": "bytes32[]",
					"name": "hashList",
					"type": "bytes32[]"
				}
			],
			"name": "storeHashMulti",
			"outputs": [],
			"stateMutability": "nonpayable",
			"type": "function"
		}
	]
}